:020000040800F2
:100000000050002009090008A5080008AD080008F4
:10001000B5080008BD080008C50800080000000079
:10002000000000000000000000000000CD080008F3
:10003000D908000800000000E5080008F1080008E1
:100040005109000851090008510900085109000828
:100050005109000851090008510900085109000818
:100060005109000851090008510900085109000808
:1000700051090008510900085109000851090008F8
:1000800051090008510900085109000851090008E8
:1000900051090008510900085109000851090008D8
:1000A00051090008510900085109000851090008C8
:1000B00051090008510900085109000851090008B8
:1000C00051090008510900085109000851090008A8
:1000D0005109000851090008510900085109000898
:1000E00051090008510900085109000800000000EA
:1000F0000000000000000000000000000000000000
:0C01000000000000000000005FF808F1A3
:10010C0010B5054C237833B9044B13B10448AFF345
:10011C0000800123237010BD0C00002000000000A3
:10012C007430000808B5034B1BB103490348AFF307
:10013C00008008BD00000000100000207430000892
:10014C0080B588B002AFF8600B46FB72C7F804C0EC
:10015C0000233B75FB7A7B7507F114024FF0FF33DC
:10016C00009302237821F86801F0EEFC00BF1837E9
:10017C00BD4680BD80B584B000AF07F118033B606D
:10018C0000F0E2FB00F0B6F900F07CFA00F04CFA5B
:10019C0000F00CFA0023FB730023FB713B469C46DA
:1001AC00394800F097F84FF480620021374802F08C
:1001BC002FFF3B469C4601220121012000F012F941
:1001CC003B469C4601220A21012000F00BF93B46DC
:1001DC009C462D4800F05AF90023BB802C4801F0B6
:1001EC0041F80023BB602A4800F0E8FC6421284851
:1001FC0000F092FD264800F095FE0346BB800122DC
:10020C004FF40051234801F043FB00F0F5FB02468C
:10021C00BB68D31AB3F57A7F07D93B469C461A487C
:10022C0000F034F900F0E8FBB860FB7B5A1C1A4B69
:10023C0083FB021313449911D317C91A0B46DB0124
:10024C005B1AD11A0B46FB73BB88144AA2FB03231F
:10025C009B089BB2FB71F979FB7B3A4694460122D1
:10026C00184600F0BFF8FB7B7D2B05D94FF480625C
:10027C000021064802F0CCFE00224FF40051054844
:10028C0001F006FBAFE700BF58000020AC000020D7
:10029C00280000200010014009040281CDCCCCCCF8
:1002AC0080B588B004AFF860B9601346FB80C7F81E
:1002BC0000C04FF0FF330293FB880193BB6800939F
:1002CC00012340227821F86801F03CFD00BF103773
:1002DC00BD4680BD90B583B000AF78606446C7F86A
:1002EC0000C0A446AE217868FFF72AFFA446D521AA
:1002FC007868FFF725FFA44680217868FFF720FF78
:10030C00A446A8217868FFF71BFFA4463F21786814
:10031C00FFF716FFA446D3217868FFF711FFA44618
:10032C0000217868FFF70CFFA44640217868FFF79E
:10033C0007FFA4468D217868FFF702FFA44614211D
:10034C007868FFF7FDFEA44620217868FFF7F8FED9
:10035C00A44600217868FFF7F3FEA446A121786833
:10036C00FFF7EEFEA446C8217868FFF7E9FEA44625
:10037C00DA217868FFF7E4FEA44612217868FFF7CB
:10038C00DFFEA44681217868FFF7DAFEA446CF2170
:10039C007868FFF7D5FEA446D9217868FFF7D0FE20
:1003AC00A446F1217868FFF7CBFEA446DB217868E0
:1003BC00FFF7C6FEA44640217868FFF7C1FEA446AD
:1003CC00A4217868FFF7BCFEA446A6217868FFF745
:1003DC00B7FEA446AF217868FFF7B2FE00BF0C371A
:1003EC00BD4690BD80B483B000AF0346FB710B4695
:1003FC00BB7113467B71C7F800C097F90730002B0F
:10040C003DDBBB793F2B3AD87B79002B1AD0FA799C
:10041C00BB79DB08D8B20346DB0113441A4AD35C20
:10042C005AB2BB7903F00703012101FA03F35BB263
:10043C00134359B2FA790346DB011344C9B2124A89
:10044C00D1541DE0FA79BB79DB08D8B20346DB0145
:10045C0013440D4AD35C5AB2BB7903F00703012154
:10046C0001FA03F35BB2DB435BB2134059B2FA7986
:10047C000346DB011344C9B2034AD15400E000BF68
:10048C000C37BD4680BC7047AC00002090B585B0E1
:10049C0000AF78606446C7F800C00023FB731EE011
:1004AC00FB7B503BDBB2A44619467868FFF748FE4D
:1004BC00A44600217868FFF743FEA4461021786813
:1004CC00FFF73EFEFB7BDB01094A1344A446802266
:1004DC0019467868FFF7E4FEFB7B0133FB73FB7B6B
:1004EC00072BDDD900BF00BF1437BD4690BD00BF40
:1004FC00AC00002080B594B000AF07F1280328228F
:10050C000021184602F084FD07F1140300221A6042
:10051C005A609A60DA601A613B1D00221A605A60B8
:10052C009A60DA600123BB624FF48033FB620023D4
:10053C003B630123BB6302237B644FF48033BB64B6
:10054C004FF4E013FB6407F12803184601F0E4FFB5
:10055C000346002B01D000F0EDF80F237B61022342
:10056C00BB610023FB614FF480633B6200237B6221
:10057C0007F114030221184602F050FA0346002B2F
:10058C0001D000F0D7F802237B604FF40043FB60EE
:10059C003B1D184602F0D0FB0346002B01D000F0A7
:1005AC00C9F800BF5037BD4680BD000080B584B08F
:1005BC0000AF3B1D00221A605A609A60184B194A12
:1005CC001A60174B00229A60154B00221A73144BB9
:1005DC0000221A75124B4FF46022DA61104B002284
:1005EC005A600F4B01221A610D4800F00FFA0346B6
:1005FC00002B01D000F09EF800237B600123BB6030
:10060C000023FB603B1D1946054800F097FC034690
:10061C00002B01D000F08EF800BF1037BD4680BD16
:10062C00280000200024014080B500AF124B134A73
:10063C001A60114B124A5A600F4B00229A600E4BF3
:10064C000022DA600C4B4FF480421A610A4B0022F4
:10065C005A61094B00229A61074B0022DA61064B62
:10066C0000221A62044801F02BF90346002B01D03A
:10067C0000F060F800BF80BD58000020005400401E
:10068C00A086010080B588B000AF07F110030022EE
:10069C001A605A609A60DA60244B9B69234A43F0D3
:1006AC0010039361214B9B6903F01003FB60FB6803
:1006BC001E4B9B691D4A43F0200393611B4B9B69A6
:1006CC0003F02003BB60BB68184B9B69174A43F0CF
:1006DC0004039361154B9B6903F004037B607B68F7
:1006EC00124B9B69114A43F0080393610F4B9B69B2
:1006FC0003F008033B603B6800224FF400510C48A8
:10070C0001F0C6F84FF400533B6101237B610023D9
:10071C00BB610223FB6107F110031946044800F08A
:10072C0033FF00BF2037BD4680BD00BF0010024024
:10073C000010014080B400AF72B600BF00BFFDE7EF
:10074C0080B485B000AF154B9B69144A43F001038C
:10075C009361124B9B6903F00103BB60BB680F4BA9
:10076C00DB690E4A43F08053D3610C4BDB6903F019
:10077C0080537B607B680A4B5B68FB60FB6823F0F3
:10078C00E063FB60FB6843F08063FB60044AFB683A
:10079C00536000BF1437BD4680BC70470010024048
:1007AC000000014080B588B000AF786007F11003FD
:1007BC0000221A605A609A60DA607B681B68144ADF
:1007CC00934221D1134B9B69124A43F400739361FA
:1007DC00104B9B6903F40073FB60FB680D4B9B692A
:1007EC000C4A43F0040393610A4B9B6903F0040326
:1007FC00BB60BB6801233B6103237B6107F11003E2
:10080C001946054800F0C0FE00BF2037BD4680BD2C
:10081C0000240140001002400008014080B588B05F
:10082C0000AF786007F1100300221A605A609A60DA
:10083C00DA607B681B68154A934223D1144B9B6981
:10084C00134A43F008039361114B9B6903F00803AF
:10085C00FB60FB68C0233B6112237B610323FB61BC
:10086C0007F1100319460B4800F08EFE084BDB69AC
:10087C00074A43F40013D361054BDB6903F40013FF
:10088C00BB60BB6800BF2037BD4680BD0054004034
:10089C0000100240000C014080B400AF00BFFDE727
:1008AC0080B400AF00BFFDE780B400AF00BFFDE730
:1008BC0080B400AF00BFFDE780B400AF00BFFDE720
:1008CC0080B400AF00BFBD4680BC704780B400AFA1
:1008DC0000BFBD4680BC704780B400AF00BFBD46B2
:1008EC0080BC704780B500AF00F074F800BF80BDCD
:1008FC0080B400AF00BFBD4680BC7047FFF7F8FF67
:10090C000B480C490C4A002302E0D458C450043361
:10091C00C4188C42F9D3094A094C002301E0136036
:10092C000432A242FBD302F07BFBFFF723FC70479F
:10093C00000000200C000020D43000080C00002027
:10094C00B0040020FEE7000080B500AF084B1B6828
:10095C00074A43F010031360032000F0E1FD0F2061
:10096C0000F008F8FFF7ECFE0023184680BD00BF2E
:10097C000020024080B582B000AF7860124B1A683C
:10098C00124B1B7819464FF47A73B3FBF1F3B2FB9D
:10099C00F3F3184600F0EBFD0346002B01D00123C6
:1009AC000EE07B680F2B0AD8002279684FF0FF30DD
:1009BC0000F0C1FD064A7B681360002300E00123B0
:1009CC0018460837BD4680BD0000002008000020F6
:1009DC000400002080B400AF054B1B781A46054B71
:1009EC001B681344034A136000BFBD4680BC7047AC
:1009FC0008000020AC04002080B400AF024B1B6840
:100A0C001846BD4680BC7047AC04002080B586B04B
:100A1C0000AF78600023FB7500233B610023BB60B3
:100A2C000023FB607B68002B01D10123BEE07B68B7
:100A3C009B68002B7B689B6A002B09D17B6800228A
:100A4C00DA627B68002283F824207868FFF7AAFE1C
:100A5C00786800F0C5FB0346FB757B689B6A03F066
:100A6C001003002B40F09980FB7D002B40F095800B
:100A7C007B689B6A23F4885323F0020343F0020241
:100A8C007B689A627B685A687B68DB691A437B686F
:100A9C001B7B5B001343BA681343BB607B689B688A
:100AAC00B3F5807F03D07B689B68012B02D14FF498
:100ABC00807300E000233A6913433B617B681B7D24
:100ACC00012B19D17B681B7B002B09D17B689B699F
:100ADC00013B5A033B69134343F400633B610BE056
:100AEC007B689B6A43F020027B689A627B68DB6AB6
:100AFC0043F001027B68DA627B681B685B6823F455
:100B0C0069417B681B683A690A435A607B681B68B9
:100B1C009A68284B13407A681268B9680B43936043
:100B2C007B689B68B3F5807F03D07B689B68012B47
:100B3C0004D17B681B69013B1B05FB607B681B6850
:100B4C00DB6A23F470017B681B68FA680A43DA627B
:100B5C007B681B689A68184B1340BA689A420BD191
:100B6C007B680022DA627B689B6A23F0030343F004
:100B7C0001027B689A6218E07B689B6A23F012037F
:100B8C0043F010027B689A627B68DB6A43F00102D7
:100B9C007B68DA620123FB7507E07B689B6A43F094
:100BAC0010027B689A620123FB75FB7D184618378F
:100BBC00BD4680BDFDF7E1FFFE0E1FFF80B584B082
:100BCC0000AF78600023FB737B6893F82430012B13
:100BDC0001D1022398E07B68012283F824207868F5
:100BEC0000F0A4FA0346FB73FB7B002B40F08780DC
:100BFC007B689B6A23F4407323F0010343F48072F7
:100C0C007B689A627B681B68414A934205D1414BD1
:100C1C005B6803F47023002B15D17B689B6A23F46B
:100C2C0080127B689A627B681B685B6803F4806344
:100C3C00002B26D07B689B6A23F4405343F48052EC
:100C4C007B689A621DE07B689B6A43F480127B6828
:100C5C009A627B681B682F4A934204D07B681B689E
:100C6C002B4A93420DD12B4B5B6803F48063002B12
:100C7C0007D07B689B6A23F4405343F480527B6813
:100C8C009A627B689B6A03F48053002B06D07B68C6
:100C9C00DB6A23F006027B68DA6202E07B680022E2
:100CAC00DA627B68002283F824207B681B686FF073
:100CBC0002021A607B681B689B6803F46023B3F51F
:100CCC00602F13D17B681B68114A934205D1114BDD
:100CDC005B6803F47023002B08D17B681B689A684F
:100CEC007B681B6842F4A0029A600CE07B681B686E
:100CFC009A687B681B6842F480129A6003E07B68F8
:100D0C00002283F82420FB7B18461037BD4680BD9B
:100D1C00002801400024014090B587B000AF7860F6
:100D2C00396000237B610023FB6000233B61FFF7EC
:100D3C0063FE78617B681B689B6803F48073002BEF
:100D4C000BD07B689B6A43F020027B689A627B68BD
:100D5C00002283F824200123D3E07B681B685B68A6
:100D6C0003F48073002B31D17B681B68DB6A03F4BE
:100D7C007003002B2AD121E03B68B3F1FF3F1DD05B
:100D8C003B68002B07D0FFF737FE02467B69D31A6E
:100D9C003A689A4212D27B681B681B6803F0020304
:100DAC00002B0BD17B689B6A43F004027B689A6230
:100DBC007B68002283F824200323A2E07B681B6855
:100DCC001B6803F00203002BD6D070E04F4B1C685D
:100DDC00022002F067F80346B4FBF3F27B681B6851
:100DEC0019694B4B0B40002B18D17B681B68D968D9
:100DFC00484B0B40002B11D17B681B681969464B83
:100E0C000B40002B08D17B681B68D968434B0B4007
:100E1C00002B01D1142320E029231EE07B681B68E2
:100E2C0019693D4B0B40002B06D17B681B68D968B8
:100E3C003A4B0B40002B0DD07B681B681969384B63
:100E4C000B40002B08D17B681B68D968344B0B40D6
:100E5C00002B01D1542300E0FC2302FB03F33B6184
:100E6C0021E03B68B3F1FF3F1AD03B68002B07D061
:100E7C00FFF7C2FD02467B69D31A3A689A420FD239
:100E8C00FB683A699A420BD97B689B6A43F004026F
:100E9C007B689A627B68002283F82420032330E06D
:100EAC00FB680133FB60FB683A699A42D9D87B68CE
:100EBC001B686FF012021A607B689B6A43F4007225
:100ECC007B689A627B681B689B6803F46023B3F5AC
:100EDC00602F15D17B681B7B002B11D17B689B6A23
:100EEC0023F480727B689A627B689B6A03F480535C
:100EFC00002B05D17B689B6A43F001027B689A62E8
:100F0C00002318461C37BD4690BD00BF00000020D2
:100F1C002449922424499200922449129224490093
:100F2C004992240080B483B000AF78607B681B6862
:100F3C00DB6C18460C37BD4680BC704780B485B05E
:100F4C0000AF786039600023FB730023BB607B68C3
:100F5C0093F82430012B01D10223DCE07B680122C1
:100F6C0083F824203B685B68062B1CD87B681B68C5
:100F7C00596B3B685A6813469B001344053B1F2270
:100F8C0002FA03F3DB4319403B6818683B685A6864
:100F9C0013469B001344053B00FA03F27B681B6865
:100FAC000A435A633CE03B685B680C2B1CD87B689B
:100FBC001B68196B3B685A6813469B001344233B10
:100FCC001F2202FA03F3DB4319403B6818683B68A5
:100FDC005A6813469B001344233B00FA03F27B68C8
:100FEC001B680A431A631BE07B681B68D96A3B6861
:100FFC005A6813469B001344413B1F2202FA03F329
:10100C00DB4319403B6818683B685A6813469B00E1
:10101C001344413B00FA03F27B681B680A43DA6213
:10102C003B681B68092B1CD97B681B68D9683B681B
:10103C001A6813465B0013441E3B072202FA03F3A3
:10104C00DB4319403B6898683B681A6813465B00A1
:10105C0013441E3B00FA03F27B681B680A43DA60F8
:10106C0019E07B681B6819693B681A6813465B00BA
:10107C001344072202FA03F3DB4319403B689868D8
:10108C003B681A6813465B00134400FA03F27B6852
:10109C001B680A431A613B681B68102B03D03B6822
:1010AC001B68112B32D17B681B681D4A934225D1DA
:1010BC007B681B689B6803F40003002B26D17B68BC
:1010CC001B689A687B681B6842F400029A603B6854
:1010DC001B68102B1AD1134B1B68134AA2FB03235A
:1010EC009A0C13469B0013445B00BB6002E0BB6888
:1010FC00013BBB60BB68002BF9D107E07B689B6AA6
:10110C0043F020027B689A620123FB737B68002208
:10111C0083F82420FB7B18461437BD4680BC7047EF
:10112C00002401400000002083DE1B4380B584B006
:10113C0000AF78600023FB600023BB607B681B68FA
:10114C009B6803F00103012B40D07B681B689A68F5
:10115C007B681B6842F001029A601F4B1B681F4A98
:10116C00A2FB03239B0CBB6002E0BB68013BBB6092
:10117C00BB68002BF9D1FFF73FFCF8601FE0FFF7CD
:10118C003BFC0246FB68D31A022B18D97B681B6800
:10119C009B6803F00103012B11D07B689B6A43F021
:1011AC0010027B689A627B68DB6A43F001027B6801
:1011BC00DA627B68002283F82420012307E07B6835
:1011CC001B689B6803F00103012BD8D10023184640
:1011DC001037BD4680BD00BF0000002083DE1B43DE
:1011EC0080B584B000AF78600023FB607B681B681F
:1011FC009B6803F00103012B2ED17B681B689A6856
:10120C007B681B6822F001029A60FFF7F5FBF8601F
:10121C001BE0FFF7F1FB0246FB68D31A022B14D933
:10122C007B681B689B6803F00103012B0DD17B6865
:10123C009B6A43F010027B689A627B68DB6A43F01E
:10124C0001027B68DA62012307E07B681B689B68FC
:10125C0003F00103012BDCD0002318461037BD46E8
:10126C0080BD000090B587B000AF78600023FB759F
:10127C000023FB607B6893F82430012B01D10223FF
:10128C0097E07B68012283F824207868FFF7A8FF99
:10129C000346FB757868FFF749FF0346FB75FB7D3A
:1012AC00002B40F081807B689B6A23F4885323F0E9
:1012BC00020343F002027B689A62404B1C680220D6
:1012CC0001F0F0FD0346B4FBF3F35B00FB6002E0BE
:1012DC00FB68013BFB60FB68002BF9D17B681B684A
:1012EC009A687B681B6842F008029A60FFF784FBDF
:1012FC0038611BE0FFF780FB02463B69D31A0A2BCF
:10130C0014D97B681B689B6803F00803002B0DD075
:10131C007B689B6A23F0120343F010027B689A628D
:10132C007B68002283F82420012342E07B681B6841
:10133C009B6803F00803002BDCD17B681B689A6860
:10134C007B681B6842F004029A60FFF755FB38611A
:10135C001BE0FFF751FB02463B69D31A0A2B14D949
:10136C007B681B689B6803F00403002B0DD07B6823
:10137C009B6A23F0120343F010027B689A627B682D
:10138C00002283F82420012313E07B681B689B68F0
:10139C0003F00403002BDCD17B689B6A23F003036E
:1013AC0043F001027B689A627B68002283F8242058
:1013BC00FB7D18461C37BD4690BD00BF00000020C9
:1013CC0080B485B000AF78607B6803F00703FB60E6
:1013DC000C4BDB68BB60BA684FF6FF031340BB6075
:1013EC00FB681A02BB68134343F0BF6343F400333A
:1013FC00BB60044ABB68D36000BF1437BD4680BCD9
:10140C00704700BF00ED00E080B400AF044BDB6818
:10141C001B0A03F007031846BD4680BC704700BF8B
:10142C0000ED00E080B483B000AF03463960FB717F
:10143C0097F90730002B0ADB3B68DAB20C4997F9B5
:10144C0007301201D2B20B4483F800230AE03B6848
:10145C00DAB20849FB7903F00F03043B1201D2B254
:10146C000B441A7600BF0C37BD4680BC704700BFDA
:10147C0000E100E000ED00E080B489B000AFF8605E
:10148C00B9607A60FB6803F00703FB61FB69C3F189
:10149C000703042B28BF0423BB61FB690433062B11
:1014AC0002D9FB69033B00E000237B614FF0FF3264
:1014BC00BB6902FA03F3DA43BB681A407B699A40B2
:1014CC004FF0FF317B6901FA03F3D9437B680B4082
:1014DC00134318462437BD4680BC704780B582B094
:1014EC0000AF78607B68013BB3F1807F01D30123AF
:1014FC000FE00A4A7B68013B53600F214FF0FF302D
:10150C00FFF790FF054B00229A60044B07221A60EC
:10151C00002318460837BD4680BD00BF10E000E030
:10152C0080B582B000AF78607868FFF749FF00BFE4
:10153C000837BD4680BD80B586B000AF0346B960A4
:10154C007A60FB7300237B61FFF75EFF78617A683A
:10155C00B9687869FFF790FF024697F90F3011468A
:10156C001846FFF75FFF00BF1837BD4680BD80B53A
:10157C0082B000AF78607868FFF7B0FF034618467A
:10158C000837BD4680BD000080B48BB000AF7860DA
:10159C00396000237B6200233B6269E101227B6A94
:1015AC0002FA03F3FB613B681B68FA691340BB61E9
:1015BC00BA69FB699A4240F058813B685B689A4A69
:1015CC0093425ED0984A934275D8984A934258D029
:1015DC00964A93426FD8964A934252D0944A934279
:1015EC0069D8944A93424CD0924A934263D8924A17
:1015FC00934246D0904A93425DD8122B2AD8122B94
:10160C0059D801A252F823F08F1600086916000869
:10161C007B160008BD160008C3160008C316000888
:10162C00C3160008C3160008C3160008C31600082A
:10163C00C3160008C3160008C3160008C31600081A
:10164C00C3160008C3160008C3160008711600085C
:10165C0085160008794A934213D02CE03B68DB686E
:10166C003B6229E03B68DB6804333B6224E03B6867
:10167C00DB6808333B621FE03B68DB680C333B6282
:10168C001AE03B689B68002B02D104233B6213E0F9
:10169C003B689B68012B05D108233B627B68FA6988
:1016AC001A6109E008233B627B68FA695A6103E01E
:1016BC0000233B6200E000BFBB69FF2B01D87B68B5
:1016CC0001E07B6804337B61BB69FF2B02D87B6A2A
:1016DC009B0002E07B6A083B9B003B617B691A68BC
:1016EC000F213B6901FA03F3DB431A40396A3B696A
:1016FC0001FA03F31A437B691A603B685B6803F0D9
:10170C008053002B00F0B1804D4B9B694C4A43F049
:10171C00010393614A4B9B6903F00103BB60BB68F7
:10172C00484A7B6A9B08023352F82330FB607B6A81
:10173C0003F003039B000F2202FA03F3DB43FA6866
:10174C001340FB607B68404A934213D07B683F4A4E
:10175C0093420DD07B683E4A934207D07B683D4A4A
:10176C00934201D1032306E0042304E0022302E0A8
:10177C00012300E000237A6A02F0030292009340F6
:10178C00FA681343FB602F497B6A9B080233FA68A3
:10179C0041F823203B685B6803F48013002B06D0D0
:1017AC002D4B9A682C49BB6913438B6006E02A4B7E
:1017BC009A68BB69DB43284913408B603B685B68C4
:1017CC0003F40013002B06D0234BDA682249BB69C3
:1017DC001343CB6006E0204BDA68BB69DB431E4940
:1017EC001340CB603B685B6803F40033002B06D0DE
:1017FC00194B5A681849BB6913434B6006E0164BEA
:10180C005A68BB69DB43144913404B603B685B6807
:10181C0003F48033002B21D00F4B1A680E49BB699F
:10182C0013430B6021E000BF0000321000003110A8
:10183C0000002210000021100000121000001110F6
:10184C00001002400000014000080140000C014063
:10185C000010014000140140000401400B4B1A68B9
:10186C00BB69DB43094913400B607B6A01337B6224
:10187C003B681A687B6A22FA03F3002B7FF48EAE66
:10188C0000BF00BF2C37BD4680BC70470004014030
:10189C0080B483B000AF78600B467B8013467B70BE
:1018AC007B78002B03D07A887B681A6103E07B88F5
:1018BC001A047B681A6100BF0C37BD4680BC7047A8
:1018CC0080B584B000AF78607B68002B01D1012318
:1018DC002BE17B6893F83D30DBB2002B06D17B68A3
:1018EC00002283F83C207868FEF798FF7B6824225E
:1018FC0083F83D207B681B681A687B681B6822F0A4
:10190C0001021A607B681B681A687B681B6842F4CA
:10191C0000421A607B681B681A687B681B6822F49B
:10192C0000421A6001F0C2F9F8607B685B68814A7A
:10193C00934207D8FB68804A934294BF012300234B
:10194C00DBB206E0FB687D4A934294BF012300237F
:10195C00DBB2002B01D00123E7E0FB68784AA2FB45
:10196C0003239B0CBB607B681B685B6823F03F0107
:10197C007B681B68BA680A435A607B681B681B6AE1
:10198C0023F03F017B685B686A4A934202D8BB68CC
:10199C00013309E0BB684FF4967202FB03F3694A0A
:1019AC00A2FB03239B0901337A6812680B43136271
:1019BC007B681B68DB6923F44F4222F0FF027B68D3
:1019CC005B685C498B4219D8FB68591E7B685B6865
:1019DC005B00B1FBF3F3591C40F6FC730B40002B7E
:1019EC000AD0FB68591E7B685B685B00B1FBF3F3A4
:1019FC000133C3F30B0351E004234FE07B689B6876
:101A0C00002B11D1FB68581E7B6859680B465B0094
:101A1C000B44B0FBF3F30133C3F30B03002B0CBFEC
:101A2C0001230023DBB212E0FB68581E7B68596867
:101A3C000B469B000B4499000B44B0FBF3F30133B2
:101A4C00C3F30B03002B0CBF01230023DBB2002BD1
:101A5C0001D0012322E07B689B68002B0ED1FB6830
:101A6C00581E7B6859680B465B000B44B0FBF3F3C4
:101A7C000133C3F30B0343F400430FE0FB68581E20
:101A8C007B6859680B469B000B4499000B44B0FBD8
:101A9C00F3F30133C3F30B0343F440437968096850
:101AAC001343CB617B681B681B6823F0C0017B6808
:101ABC00DA697B681B6A1A437B681B680A431A60E5
:101ACC007B681B689B6823F4034323F0FF037A684D
:101ADC0011697A68D26811437A6812680B43936073
:101AEC007B681B68DB6823F0FF017B685A697B68A5
:101AFC009B691A437B681B680A43DA607B681B6826
:101B0C001A687B681B6842F001021A607B6800222D
:101B1C001A647B68202283F83D207B6800221A63BC
:101B2C007B68002283F83E20002318461037BD4600
:101B3C0080BD00BFA08601007F841E00FF083D0011
:101B4C0083DE1B43D34D621080B588B002AFF860C2
:101B5C007A601A460B467B8113463B81FEF74CFF9D
:101B6C007861FB6893F83D30DBB2202B40F0E080CD
:101B7C007B690093192301227049F86800F0F4FA8C
:101B8C000346002B01D00223D3E0FB6893F83C30D2
:101B9C00012B01D10223CCE0FB68012283F83C200D
:101BAC00FB681B681B6803F00103012B07D0FB6863
:101BBC001B681A68FB681B6842F001021A60FB681C
:101BCC001B681A68FB681B6822F400621A60FB68C9
:101BDC00212283F83D20FB68102283F83E20FB680D
:101BEC0000221A64FB687A685A62FB683A895A8543
:101BFC00FB685B8D9AB2FB681A85FB68504ADA6207
:101C0C0079897B693A6AF86800F096F90346002BEB
:101C1C0001D001238DE000233B61FB681B685B69ED
:101C2C003B61FB681B689B693B613B6966E07A69B9
:101C3C00396AF86800F0B2FB0346002B0DD0FB6844
:101C4C001B6C042B07D1FB681B681A68FB681B68AC
:101C5C0042F400721A6001236BE0FB685B6A1A782D
:101C6C00FB681B681A61FB685B6A5A1CFB685A624A
:101C7C00FB685B8D9BB2013B9AB2FB685A85FB6893
:101C8C001B8D013B9AB2FB681A85FB681B685B696C
:101C9C0003F00403042B1BD1FB681B8D002B17D006
:101CAC00FB685B6A1A78FB681B681A61FB685B6AE5
:101CBC005A1CFB685A62FB685B8D9BB2013B9AB263
:101CCC00FB685A85FB681B8D013B9AB2FB681A8531
:101CDC007A69396AF86800F0A9FB0346002B0DD02D
:101CEC00FB681B6C042B07D1FB681B681A68FB682C
:101CFC001B6842F400721A6001231AE0FB681B8D0A
:101D0C00002B94D1FB681B681A68FB681B6842F4B3
:101D1C0000721A60FB68202283F83D20FB680022C9
:101D2C0083F83E20FB68002283F83C20002300E06F
:101D3C00022318461837BD4680BD00BF02001000B4
:101D4C000000FFFF80B588B002AFF860084611466E
:101D5C001A4603467B810B463B811346FB80FEF7FC
:101D6C004BFE7861FB6893F83D30DBB2202B40F0E2
:101D7C00D9807B690093192301226D49F86800F022
:101D8C00F3F90346002B01D00223CCE0FB6893F857
:101D9C003C30012B01D10223C5E0FB68012283F802
:101DAC003C20FB681B681B6803F00103012B07D068
:101DBC00FB681B681A68FB681B6842F001021A601A
:101DCC00FB681B681A68FB681B6822F400621A60C7
:101DDC00FB68212283F83D20FB68402283F83E20DB
:101DEC00FB6800221A64FB683A6A5A62FB68BA8C78
:101DFC005A85FB685B8D9AB2FB681A85FB684D4A65
:101E0C00DA62F8883A8979897B690193BB6A009315
:101E1C000346F86800F012F90346002B52D0012358
:101E2C0081E07A69B96AF86800F0B8FA0346002BC9
:101E3C000DD0FB681B6C042B07D1FB681B681A6860
:101E4C00FB681B6842F400721A6001236BE0FB68AC
:101E5C005B6A1A78FB681B681A61FB685B6A5A1C20
:101E6C00FB685A62FB681B8D013B9AB2FB681A85B2
:101E7C00FB685B8D9BB2013B9AB2FB685A85FB6891
:101E8C001B685B6903F00403042B1BD1FB681B8DDF
:101E9C00002B17D0FB685B6A1A78FB681B681A6109
:101EAC00FB685B6A5A1CFB685A62FB681B8D013B22
:101EBC009AB2FB681A85FB685B8D9BB2013B9AB2A8
:101ECC00FB685A85FB681B8D002BAAD17A69B96A0D
:101EDC00F86800F0ABFA0346002B0DD0FB681B6CC6
:101EEC00042B07D1FB681B681A68FB681B6842F45B
:101EFC0000721A60012316E0FB681B681A68FB6805
:101F0C001B6842F400721A60FB68202283F83D20A3
:101F1C00FB68002283F83E20FB68002283F83C20FB
:101F2C00002300E0022318461837BD4680BD00BFD1
:101F3C00020010000000FFFF80B588B002AFF8600F
:101F4C007A603B600B467B81FB68DB6A7B617B695B
:101F5C00082B06D07B69012B03D07B6913F5803FDE
:101F6C0008D1FB681B681A68FB681B6842F4807216
:101F7C001A600BE0FB681B6B122B07D1FB681B680C
:101F8C001A68FB681B6842F480721A603B68009305
:101F9C007B6800224FF00111F86800F0E5F8034669
:101FAC00002B0DD0FB681B681B6803F48073B3F522
:101FBC00807F03D1FB684FF400721A64032335E071
:101FCC00FB681B69B3F5804F08D17B89DBB21A46DD
:101FDC00FB681B6802F0FE021A611BE07B89DB11B7
:101FEC00DBB203F00603DBB263F00F03DAB2FB687B
:101FFC001B681A613B687A680E49F86800F02EF984
:10200C000346002B01D0012310E07B89DAB2FB6878
:10201C001B681A613B687A680749F86800F01EF97A
:10202C000346002B01D0012300E00023184618378B
:10203C00BD4680BD080001000200010080B588B0DB
:10204C0002AFF860084611461A4603467B810B46E0
:10205C003B811346FB80FB681B681A68FB681B6896
:10206C0042F480721A607B6A00933B6A00224FF044
:10207C000111F86800F078F80346002B0DD0FB68CE
:10208C001B681B6803F48073B3F5807F03D1FB6876
:10209C004FF400721A6403235FE07B89DBB21A46AB
:1020AC00FB681B6802F0FE021A617B6A3A6A2D49D2
:1020BC00F86800F0D3F80346002B01D001234CE064
:1020CC0000237B61FB681B685B697B61FB681B6899
:1020DC009B697B617B697A6A396AF86800F05EF902
:1020EC000346002B0DD0FB681B6C042B07D1FB683F
:1020FC001B681A68FB681B6842F400721A600123A3
:10210C002BE0FB88012B05D13B89DAB2FB681B68FD
:10211C001A6121E03B891B0A9BB2DAB2FB681B688F
:10212C001A617A6A396AF86800F038F90346002BAC
:10213C000DD0FB681B6C042B07D1FB681B681A685D
:10214C00FB681B6842F400721A60012305E03B89AE
:10215C00DAB2FB681B681A61002318461837BD46B3
:10216C0080BD00BF0200010080B584B000AFF860F4
:10217C00B9603B601346FB7148E03B68B3F1FF3F2D
:10218C0044D0FEF739FC0246BB69D31A3A689A422E
:10219C0002D33B68002B39D1BB681B0CDBB2012B83
:1021AC000DD1FB681B685B69DA43BB6813409BB2BB
:1021BC00002B0CBF01230023DBB21A460CE0FB689A
:1021CC001B689B69DA43BB6813409BB2002B0CBFA6
:1021DC0001230023DBB21A46FB799A4216D1FB6825
:1021EC0000221A63FB68202283F83D20FB68002242
:1021FC0083F83E20FB681B6C43F02002FB681A64DA
:10220C00FB68002283F83C20012323E0BB681B0CF5
:10221C00DBB2012B0DD1FB681B685B69DA43BB6831
:10222C0013409BB2002B0CBF01230023DBB21A46D8
:10223C000CE0FB681B689B69DA43BB6813409BB2DC
:10224C00002B0CBF01230023DBB21A46FB799A4208
:10225C0093D0002318461037BD4680BD80B584B09E
:10226C0000AFF860B9607A603B6071E0FB681B6896
:10227C005B6903F48063B3F5806F23D1FB681B6843
:10228C001A68FB681B6842F400721A60FB681B68D2
:10229C006FF480625A61FB6800221A63FB6820228B
:1022AC0083F83D20FB68002283F83E20FB681B6C02
:1022BC0043F00402FB681A64FB68002283F83C209C
:1022CC00012367E07B68B3F1FF3F41D0FEF794FB3D
:1022DC0002463B68D31A7A689A4202D37B68002B79
:1022EC0036D1BB681B0CDBB2012B0CD1FB681B6815
:1022FC005B69DA43BB6813409BB2002B14BF01230C
:10230C000023DBB20BE0FB681B689B69DA43BB68FC
:10231C0013409BB2002B14BF01230023DBB2002B14
:10232C0016D0FB6800221A63FB68202283F83D203C
:10233C00FB68002283F83E20FB681B6C43F02002F4
:10234C00FB681A64FB68002283F83C20012321E01F
:10235C00BB681B0CDBB2012B0CD1FB681B685B69E7
:10236C00DA43BB6813409BB2002B14BF012300233C
:10237C00DBB20BE0FB681B689B69DA43BB6813405C
:10238C009BB2002B14BF01230023DBB2002B7FF484
:10239C006DAF002318461037BD4680BD80B584B0A4
:1023AC0000AFF860B9607A6034E0F86800F086F845
:1023BC000346002B01D0012334E0BB68B3F1FF3F8F
:1023CC0028D0FEF719FB02467B68D31ABA689A42EA
:1023DC0002D3BB68002B1DD1FB681B685B6903F043
:1023EC008003802B16D0FB6800221A63FB68202226
:1023FC0083F83D20FB68002283F83E20FB681B6CB1
:10240C0043F02002FB681A64FB68002283F83C202E
:10241C00012307E0FB681B685B6903F08003802BDA
:10242C00C3D1002318461037BD4680BD80B584B09B
:10243C0000AFF860B9607A6034E0F86800F03EF8FC
:10244C000346002B01D0012334E0BB68B3F1FF3FFE
:10245C0028D0FEF7D1FA02467B68D31ABA689A42A2
:10246C0002D3BB68002B1DD1FB681B685B6903F0B2
:10247C000403042B16D0FB6800221A63FB6820228D
:10248C0083F83D20FB68002283F83E20FB681B6C20
:10249C0043F02002FB681A64FB68002283F83C209E
:1024AC00012307E0FB681B685B6903F00403042B42
:1024BC00C3D1002318461037BD4680BD80B483B00D
:1024CC0000AF78607B681B685B6903F48063B3F5CD
:1024DC00806F1BD17B681B686FF480625A617B68CC
:1024EC0000221A637B68202283F83D207B6800223F
:1024FC0083F83E207B681B6C43F004027B681A64F3
:10250C007B68002283F83C20012300E0002318465E
:10251C000C37BD4680BC704780B586B000AF786084
:10252C007B68002B01D1012372E27B681B6803F0EE
:10253C000103002B00F08780924B5B6803F00C03C7
:10254C00042B0CD08F4B5B6803F00C03082B12D1BF
:10255C008C4B5B6803F48033B3F5803F0BD1894B14
:10256C001B6803F40033002B6CD07B685B68002B7A
:10257C0068D101234CE27B685B68B3F5803F06D1E0
:10258C00804B1B687F4A43F4803313602EE07B68DA
:10259C005B68002B0CD17B4B1B687A4A23F480338D
:1025AC001360784B1B68774A23F4802313601DE07B
:1025BC007B685B68B3F5A02F0CD1724B1B68714A1A
:1025CC0043F4802313606F4B1B686E4A43F48033D3
:1025DC0013600BE06B4B1B686A4A23F48033136067
:1025EC00684B1B68674A23F4802313607B685B6825
:1025FC00002B13D0FEF700FA386108E0FEF7FCF967
:10260C0002463B69D31A642B01D9032300E25D4BCC
:10261C001B6803F40033002BF0D014E0FEF7ECF948
:10262C00386108E0FEF7E8F902463B69D31A642BDF
:10263C0001D90323ECE1534B1B6803F40033002B4B
:10264C00F0D100E000BF7B681B6803F00203002B95
:10265C0063D04C4B5B6803F00C03002B0BD0494B45
:10266C005B6803F00C03082B1CD1464B5B6803F42E
:10267C008033002B16D1434B1B6803F00203002B55
:10268C0005D07B681B69012B01D00123C0E13D4BB8
:10269C001B6823F0F8027B685B69DB003949134344
:1026AC000B603AE07B681B69002B20D0364B012273
:1026BC001A60FEF7A1F9386108E0FEF79DF90246B1
:1026CC003B69D31A022B01D90323A1E12D4B1B68C3
:1026DC0003F00203002BF0D02A4B1B6823F0F80206
:1026EC007B685B69DB00274913430B6015E0264BC5
:1026FC0000221A60FEF780F9386108E0FEF77CF9D9
:10270C0002463B69D31A022B01D9032380E11D4BEE
:10271C001B6803F00203002BF0D17B681B6803F0ED
:10272C000803002B3AD07B689B69002B19D0174B00
:10273C0001221A60FEF760F9386108E0FEF75CF9D7
:10274C0002463B69D31A022B01D9032360E10D4BDE
:10275C005B6A03F00203002BF0D0012000F0CEFAEC
:10276C001CE00A4B00221A60FEF746F938610FE0B4
:10277C00FEF742F902463B69D31A022B08D9032310
:10278C0046E100BF00100240000042428004424279
:10279C00924B5B6A03F00203002BE9D17B681B6848
:1027AC0003F00403002B00F0A6800023FB758B4B79
:1027BC00DB6903F08053002B0DD1884BDB69874A12
:1027CC0043F08053D361854BDB6903F08053BB60CE
:1027DC00BB680123FB75824B1B6803F48073002BD1
:1027EC0018D17F4B1B687E4A43F480731360FEF74D
:1027FC0003F9386108E0FEF7FFF802463B69D31A8B
:10280C00642B01D9032303E1754B1B6803F480731C
:10281C00002BF0D07B68DB68012B06D16F4B1B6A59
:10282C006E4A43F0010313622DE07B68DB68002BDA
:10283C000CD16A4B1B6A694A23F001031362674B84
:10284C001B6A664A23F0040313621CE07B68DB6896
:10285C00052B0CD1614B1B6A604A43F004031362D5
:10286C005E4B1B6A5D4A43F0010313620BE05B4B4A
:10287C001B6A5A4A23F001031362584B1B6A574ACE
:10288C0023F0040313627B68DB68002B15D0FEF782
:10289C00B3F838610AE0FEF7AFF802463B69D31A89
:1028AC0041F28832934201D90323B1E04B4B1B6AAE
:1028BC0003F00203002BEED014E0FEF79DF8386114
:1028CC000AE0FEF799F802463B69D31A41F28832C6
:1028DC00934201D903239BE0404B1B6A03F0020394
:1028EC00002BEED1FB7D012B05D13C4BDB693B4A28
:1028FC0023F08053D3617B68DB69002B00F0878069
:10290C00364B5B6803F00C03082B61D07B68DB69EA
:10291C00022B46D1334B00221A60FEF76DF838615A
:10292C0008E0FEF769F802463B69D31A022B01D97D
:10293C0003236DE0294B1B6803F00073002BF0D1CF
:10294C007B681B6AB3F5803F08D1244B5B6823F48A
:10295C0000327B689B68214913434B601F4B5B68BB
:10296C0023F474127B68196A7B685B6A0B431B49FE
:10297C0013434B601B4B01221A60FEF73DF8386184
:10298C0008E0FEF739F802463B69D31A022B01D94D
:10299C0003233DE0114B1B6803F00073002BF0D0B8
:1029AC0035E0104B00221A60FEF726F8386108E07B
:1029BC00FEF722F802463B69D31A022B01D90323F6
:1029CC0026E0064B1B6803F00073002BF0D11EE0D1
:1029DC007B68DB69012B07D1012319E00010024051
:1029EC0000700040600042420B4B5B68FB60FB6870
:1029FC0003F480327B681B6A9A4206D1FB6803F4AD
:102A0C0070127B685B6A9A4201D0012300E00023BC
:102A1C0018461837BD4680BD0010024080B584B002
:102A2C0000AF786039607B68002B01D10123D0E0C6
:102A3C006A4B1B6803F007033A689A4210D9674B3C
:102A4C001B6823F0070265493B6813430B60634B1B
:102A5C001B6803F007033A689A4201D00123B8E0DF
:102A6C007B681B6803F00203002B20D07B681B687B
:102A7C0003F00403002B05D0594B5B68584A43F410
:102A8C00E06353607B681B6803F00803002B05D0E0
:102A9C00534B5B68524A43F460535360504B5B6832
:102AAC0023F0F0027B689B684D4913434B607B68B5
:102ABC001B6803F00103002B40D07B685B68012B83
:102ACC0007D1474B1B6803F40033002B15D10123AE
:102ADC007FE07B685B68022B07D1414B1B6803F0DE
:102AEC000073002B09D1012373E03D4B1B6803F0ED
:102AFC000203002B01D101236BE0394B5B6823F0FF
:102B0C0003027B685B68364913434B60FDF774FF27
:102B1C00F8600AE0FDF770FF0246FB68D31A41F239
:102B2C008832934201D9032353E02D4B5B6803F0A9
:102B3C000C027B685B689B009A42EBD1274B1B68AD
:102B4C0003F007033A689A4210D2244B1B6823F017
:102B5C00070222493B6813430B60204B1B6803F0B0
:102B6C0007033A689A4201D0012332E07B681B6864
:102B7C0003F00403002B08D0194B5B6823F4E062CC
:102B8C007B68DB68164913434B607B681B6803F05A
:102B9C000803002B09D0124B5B6823F460527B684E
:102BAC001B69DB000E4913434B6000F021F8024611
:102BBC000B4B5B681B0903F00F030A49CB5C22FA31
:102BCC0003F3094A1360094B1B681846FDF7D2FE44
:102BDC00002318461037BD4680BD00BF00200240C0
:102BEC00001002408C30000800000020040000207F
:102BFC0080B487B000AF0023FB600023BB600023D0
:102C0C007B6100237B6000233B611E4B5B68FB6098
:102C1C00FB6803F00C03042B02D0082B03D027E035
:102C2C00194B3B6127E0FB689B0C03F00F03174A21
:102C3C00D35C7B60FB6803F48033002B10D0114B0A
:102C4C005B685B0C03F00103114AD35CBB607B68CF
:102C5C000D4A03FB02F2BB68B2FBF3F37B6104E0A9
:102C6C007B680C4A02FB03F37B617B693B6102E0EE
:102C7C00054B3B6100BF3B6918461C37BD4680BC09
:102C8C00704700BF0010024000127A00A430000808
:102C9C00B430000800093D0080B400AF024B1B6843
:102CAC001846BD4680BC70470000002080B500AFC0
:102CBC00FFF7F2FF0246054B5B681B0A03F00703A4
:102CCC000349CB5C22FA03F3184680BD0010024086
:102CDC009C30000880B500AFFFF7DEFF0246054BC5
:102CEC005B68DB0A03F007030349CB5C22FA03F3AE
:102CFC00184680BD001002409C30000880B485B09E
:102D0C0000AF78600A4B1B680A4AA2FB03235B0ADC
:102D1C007A6802FB03F3FB6000BFFB685A1EFA6083
:102D2C00002BF9D100BF00BF1437BD4680BC7047E3
:102D3C0000000020D34D621080B586B000AF7860E3
:102D4C0000233B610023FB607B681B6803F00103DD
:102D5C00002B7DD00023FB754F4BDB6903F08053B8
:102D6C00002B0DD14C4BDB694B4A43F08053D361A4
:102D7C00494BDB6903F08053BB60BB680123FB75D7
:102D8C00464B1B6803F48073002B18D1434B1B6814
:102D9C00424A43F480731360FDF72EFE386108E05D
:102DAC00FDF72AFE02463B69D31A642B01D9032393
:102DBC006DE03A4B1B6803F48073002BF0D0364B5C
:102DCC001B6A03F44073FB60FB68002B2ED07B68FE
:102DDC005B6803F44073FA689A4227D02E4B1B6A47
:102DEC0023F44073FB602E4B01221A602C4B002203
:102DFC001A60294AFB681362FB6803F00103002B7D
:102E0C0014D0FDF7F9FD38610AE0FDF7F5FD024637
:102E1C003B69D31A41F28832934201D9032336E03D
:102E2C001D4B1B6A03F00203002BEED01A4B1B6ADE
:102E3C0023F440727B685B68174913430B62FB7D7C
:102E4C00012B05D1144BDB69134A23F08053D3615A
:102E5C007B681B6803F00203002B08D00E4B5B68E9
:102E6C0023F440427B689B680B4913434B607B689F
:102E7C001B6803F01003002B08D0074B5B6823F48E
:102E8C0080027B68DB68044913434B6000231846BF
:102E9C001837BD4680BD00BF0010024000700040D6
:102EAC004004424280B588B000AF786000237B615B
:102EBC000023FB6100233B610023FB600023BB610B
:102ECC007B68102B0AD07B68102B00F28A807B6801
:102EDC00012B45D07B68022B75D082E0464B5B689A
:102EEC00FB60454B1B6803F08073002B7BD0FB68A9
:102EFC009B0C03F00F03414AD35C3B61FB6803F46A
:102F0C008033002B15D03C4B5B685B0C03F001034A
:102F1C003B4AD35C7B61FB6803F48033002B0DD000
:102F2C00384A7B69B2FBF3F23B6902FB03F3FB61AA
:102F3C0004E03B69344A02FB03F3FB612E4B5B68F4
:102F4C0003F48003B3F5800F02D1FB69BB614AE047
:102F5C00FB695B002D4AA2FB03235B08BB6142E0CB
:102F6C00254B1B6AFB60FB6803F44073B3F5807F51
:102F7C0008D1FB6803F00203002B03D04FF400438D
:102F8C00BB611FE0FB6803F44073B3F5007F09D10C
:102F9C00194B5B6A03F00203002B03D049F6404344
:102FAC00BB610FE0FB6803F44073B3F5407F1CD1A9
:102FBC00114B1B6803F40033002B16D04FF2244343
:102FCC00BB6112E011E0FFF785FE02460A4B5B681D
:102FDC009B0B03F0030301335B00B2FBF3F3BB6108
:102FEC0004E000BF02E000BF00E000BFBB69184670
:102FFC002037BD4680BD00BF00100240B83000082D
:10300C00C830000800127A0000093D00ABAAAAAA39
:10301C0003460244934200D1704703F8011BF9E7C1
:10302C0070B500260C4D0D4C641BA410A64209D1A2
:10303C0000F01AF800260A4D0A4C641BA410A64294
:10304C0005D170BD55F8043B98470136EEE755F8AD
:10305C00043B98470136F2E7CC300008CC3000082E
:10306C00CC300008D0300008F8B500BFF8BC08BC64
:10307C009E467047F8B500BFF8BC08BC9E4670472A
:10308C00000000000000000001020304060708090C
:10309C0000000000010203040203040506070809EE
:1030AC000A0B0C0D0E0F1010010200000203040598
:1030BC00060708090A0B0C0D0E0F10100102000078
:0430CC0031010008C6
:0430D0000D010008E6
:0C30D4000024F4001000000001000000C7
:0400000508000909DD
:00000001FF
